SAVLIB    *OBJ      SVILUPPOV7R2M0$ACGMOD33 010003280000000000                                                                             1170216110001$ACGMOD33           *LIB    PROD      000000000647168QSECOFR   1       1170216110001SAVE IT ACGMOD33 PRIMA INIZIO REORG ACGE 7/6/2016                                         $ACGMOD33 QTEMP     V7R2M001110
SAVLIB    *OBJ      SVILUPPOV7R2M0$ACGMOD33 010003280000000000                                                                             1170216110001ARAA6               *PGM    RPG       000000000258048QPGMR2    1       1170216110004Gestione Articoli: Lista magazzini (1/2/3)                                                $ACGMOD33 QTEMP     V7R2M001110
SAVLIB    *OBJ      SVILUPPOV7R2M0$ACGMOD33 010003280000000000                                                                             1170216110001ARAA7               *PGM    RPG       000000000962560QPGMR2    1       1170216110004Gestione anagrafico articoli                                                              $ACGMOD33 QTEMP     V7R2M001110
SAVLIB    *OBJ      SVILUPPOV7R2M0$ACGMOD33 010003280000000000                                                                             1170216110001ARAA9               *PGM    RPG       000000000290816QPGMR2    1       1170216110004Gestione Articoli in magazzino                                                            $ACGMOD33 QTEMP     V7R2M001110
SAVLIB    *OBJ      SVILUPPOV7R2M0$ACGMOD33 010003280000000000                                                                             1170216110001ARAB3               *PGM    RPG       000000000344064QPGMR2    1       1170216110004Gestione Banche                                                                           $ACGMOD33 QTEMP     V7R2M001110
SAVLIB    *OBJ      SVILUPPOV7R2M0$ACGMOD33 010003280000000000                                                                             1170216110001ARAC3               *PGM    RPG       000000001150976QPGMR     1       1170216110004Gestione anagrafico clienti                                                               $ACGMOD33 QTEMP     V7R2M001110
SAVLIB    *OBJ      SVILUPPOV7R2M0$ACGMOD33 010003280000000000                                                                             1170216110001ARAF2               *PGM    RPG       000000000229376QPGMR2    1       1170216110004Gestione Fornitori: Lista                                                                 $ACGMOD33 QTEMP     V7R2M001110
SAVLIB    *OBJ      SVILUPPOV7R2M0$ACGMOD33 010003280000000000                                                                             1170216110001ARAF3               *PGM    RPG       000000000888832QPGMR2    1       1170216110004Gestione anagrafico fornitori                                                             $ACGMOD33 QTEMP     V7R2M001110
SAVLIB    *OBJ      SVILUPPOV7R2M0$ACGMOD33 010003280000000000                                                                             1170216110001ARAG3               *PGM    RPG       000000000229376QPGMR2    1       1170216110004Gestione Agenti                                                                           $ACGMOD33 QTEMP     V7R2M001110
SAVLIB    *OBJ      SVILUPPOV7R2M0$ACGMOD33 010003280000000000                                                                             1170216110001ARALA               *PGM    RPG       000000000380928QPGMR2    1       1170216110004Gestione Listini: Senza scaglioni                                                         $ACGMOD33 QTEMP     V7R2M001110
SAVLIB    *OBJ      SVILUPPOV7R2M0$ACGMOD33 010003280000000000                                                                             1170216110001ARAL3               *PGM    RPG       000000000335872QPGMR2    1       1170216110004Gestione Testate listini                                                                  $ACGMOD33 QTEMP     V7R2M001110
SAVLIB    *OBJ      SVILUPPOV7R2M0$ACGMOD33 010003280000000000                                                                             1170216110001ARAL5               *PGM    RPG       000000000270336QPGMR2    1       1170216110004Gestione Listini: Selezione tipo lista (dettaglio)                                        $ACGMOD33 QTEMP     V7R2M001110
SAVLIB    *OBJ      SVILUPPOV7R2M0$ACGMOD33 010003280000000000                                                                             1170216110001ARAL6               *PGM    RPG       000000000266240QPGMR2    1       1170216110004Gestione Listini: Lista                                                                   $ACGMOD33 QTEMP     V7R2M001110
SAVLIB    *OBJ      SVILUPPOV7R2M0$ACGMOD33 010003280000000000                                                                             1170216110001ARAL9               *PGM    RPG       000000000135168QPGMR2    1       1170216110004Gestione omaggi/offerte speciali                                                          $ACGMOD33 QTEMP     V7R2M001110
SAVLIB    *OBJ      SVILUPPOV7R2M0$ACGMOD33 010003280000000000                                                                             1170216110001ARAV1               *PGM    RPG       000000000274432QPGMR2    1       1170216110004Gestione cambi - Manutenzione dati                                                        $ACGMOD33 QTEMP     V7R2M001110
SAVLIB    *OBJ      SVILUPPOV7R2M0$ACGMOD33 010003280000000000                                                                             1170216110001ARCL2               *PGM    RPG       000000000327680QPGMR2    1       1170216110004Copia listini (esec.)                                                                     $ACGMOD33 QTEMP     V7R2M001110
SAVLIB    *OBJ      SVILUPPOV7R2M0$ACGMOD33 010003280000000000                                                                             1170216110001ARIN1               *PGM    RPG       000000000208896QPGMR2    1       1170216110004Gestione indirizzi clienti/fornitori da gest.anagr                                        $ACGMOD33 QTEMP     V7R2M001110
SAVLIB    *OBJ      SVILUPPOV7R2M0$ACGMOD33 010003280000000000                                                                             1170216110001ARIN2               *PGM    RPG       000000000217088QPGMR2    1       1170216110004Gest. indirizzi clienti/fornitori da gest. ord/fat                                        $ACGMOD33 QTEMP     V7R2M001110
SAVLIB    *OBJ      SVILUPPOV7R2M0$ACGMOD33 010003280000000000                                                                             1170216110001ARIN2_1             *PGM    RPG       000000000200704QPGMR2    1       1170216110004Gest. indirizzi clienti/fornitori da gest. ord/fat                                        $ACGMOD33 QTEMP     V7R2M001110
SAVLIB    *OBJ      SVILUPPOV7R2M0$ACGMOD33 010003280000000000                                                                             1170216110001ARIN3               *PGM    RPG       000000000315392QPGMR     1       1170216110004Gestione indirizzi clienti o fornitori                                                    $ACGMOD33 QTEMP     V7R2M001110
SAVLIB    *OBJ      SVILUPPOV7R2M0$ACGMOD33 010003280000000000                                                                             1170216110001ARP14               *PGM    RPG       000000000241664QPGMR2    1       1170216110004Tabella Pers. Vendite - Manutenzione                                                      $ACGMOD33 QTEMP     V7R2M001110
SAVLIB    *OBJ      SVILUPPOV7R2M0$ACGMOD33 010003280000000000                                                                             1170216110001ARXCDV              *PGM    RPG       000000000266240QPGMR2    1       1170216110004Reperimento cambio e divisore fisso                                                       $ACGMOD33 QTEMP     V7R2M001110
SAVLIB    *OBJ      SVILUPPOV7R2M0$ACGMOD33 010003280000000000                                                                             1170216110001ARXR2               *PGM    RPG       000000000258048QPGMR2    1       1170216110004Gestione Riservatezza                                                                     $ACGMOD33 QTEMP     V7R2M001110
SAVLIB    *OBJ      SVILUPPOV7R2M0$ACGMOD33 010003280000000000                                                                             1170216110001ARX61               *PGM    RPG       000000000192512QPGMR2    1       1170216110004Gestione Tabella Spese                       (SPC)                                        $ACGMOD33 QTEMP     V7R2M001110
SAVLIB    *OBJ      SVILUPPOV7R2M0$ACGMOD33 010003280000000000                                                                             1170216110001ARX63               *PGM    RPG       000000000143360QPGMR2    1       1170216110004Gestione Tabella Vettori clienti             (VEC)                                        $ACGMOD33 QTEMP     V7R2M001110
SAVLIB    *OBJ      SVILUPPOV7R2M0$ACGMOD33 010003280000000000                                                                             1170216110001ARX63S              *PGM    RPG       000000000114688QPGMR2    1       1170216110004Stampa   Tabella Vettori clienti             (VEC)                                        $ACGMOD33 QTEMP     V7R2M001110
SAVLIB    *OBJ      SVILUPPOV7R2M0$ACGMOD33 010003280000000000                                                                             1170216110001AR07G4              *PGM    RPG       000000000565248QPGMR2    1       1170216110004Centri di lavoro - Manutenzione                                                           $ACGMOD33 QTEMP     V7R2M001110
SAVLIB    *OBJ      SVILUPPOV7R2M0$ACGMOD33 010003280000000000                                                                             1170216110001AR10A               *PGM    RPG       000000000847872QPGMR     1       1170216110004Ricerca clienti (finestra)                                                                $ACGMOD33 QTEMP     V7R2M001110
SAVLIB    *OBJ      SVILUPPOV7R2M0$ACGMOD33 010003280000000000                                                                             1170216110001AR12A               *PGM    RPG       000000000245760QPGMR2    1       1170216110004Gestione Conti: Finestra                                                                  $ACGMOD33 QTEMP     V7R2M001110
SAVLIB    *OBJ      SVILUPPOV7R2M0$ACGMOD33 010003280000000000                                                                             1170216110001AR14G4              *PGM    RPG       000000000360448QPGMR2    1       1170216110004Costi delle parti - Manutenzione                                                          $ACGMOD33 QTEMP     V7R2M001110
SAVLIB    *OBJ      SVILUPPOV7R2M0$ACGMOD33 010003280000000000                                                                             1170216110001AR16G4              *PGM    RPG       000000000200704QPGMR     1       1170216110004Depositi esterni - Manutenzione                                                           $ACGMOD33 QTEMP     V7R2M001110
SAVLIB    *OBJ      SVILUPPOV7R2M0$ACGMOD33 010003280000000000                                                                             1170216110001AR16S6              *PGM    RPG       000000000122880QPGMR2    1       1170216110004Depositi esterni - Stampa                                                                 $ACGMOD33 QTEMP     V7R2M001110
SAVLIB    *OBJ      SVILUPPOV7R2M0$ACGMOD33 010003280000000000                                                                             1170216110001AR19A               *PGM    RPG       000000000425984QPGMR2    1       1170216110004Ricerca fornitori (finestra)                                                              $ACGMOD33 QTEMP     V7R2M001110
SAVLIB    *OBJ      SVILUPPOV7R2M0$ACGMOD33 010003280000000000                                                                             1170216110001BCH10               *PGM    CLP       000000000045056QPGMR2    1       1170216110004Ctr. per immiss. param.aggiuntivi pgm OCO                                                 $ACGMOD33 QTEMP     V7R2M001110
SAVLIB    *OBJ      SVILUPPOV7R2M0$ACGMOD33 010003280000000000                                                                             1170216110001BCJ68               *PGM    CLLE      000000000598016QPGMR     1       1170216110004Cancellazione ricevitori e save immagini journal                                          $ACGMOD33 QTEMP     V7R2M001110
SAVLIB    *OBJ      SVILUPPOV7R2M0$ACGMOD33 010003280000000000                                                                             1170216110001BCJ68SPOT           *PGM    CLLE      000000000323584QPGMR     1       1170216110004Cancellazione ricevitori e save immagini journal                                          $ACGMOD33 QTEMP     V7R2M001110
SAVLIB    *OBJ      SVILUPPOV7R2M0$ACGMOD33 010003280000000000                                                                             1170216110001CAMBIR              *PGM    RPG       000000000167936QPGMR2    1       1170216110004Collaudo calcolo controvalori                                                             $ACGMOD33 QTEMP     V7R2M001110
SAVLIB    *OBJ      SVILUPPOV7R2M0$ACGMOD33 010003280000000000                                                                             1170216110001CRC01               *PGM    RPG       000000000118784QPGMR2    1       1170216110004CA330     Parametrico situazione clienti                                                  $ACGMOD33 QTEMP     V7R2M001110
SAVLIB    *OBJ      SVILUPPOV7R2M0$ACGMOD33 010003280000000000                                                                             1170216110001DRC22               *PGM    RPG       000000000442368QPGMR2    1       1170216110004Calcolo costi propri                                                                      $ACGMOD33 QTEMP     V7R2M001110
SAVLIB    *OBJ      SVILUPPOV7R2M0$ACGMOD33 010003280000000000                                                                             1170216110001DRC33               *PGM    RPG       000000000421888QPGMR2    1       1170216110004Interrogazione ciclo valorizzato                                                          $ACGMOD33 QTEMP     V7R2M001110
SAVLIB    *OBJ      SVILUPPOV7R2M0$ACGMOD33 010003280000000000                                                                             1170216110001DRC55               *PGM    RPG       000000000368640QPGMR2    1       1170216110004Stampa distinte di costo                                                                  $ACGMOD33 QTEMP     V7R2M001110
SAVLIB    *OBJ      SVILUPPOV7R2M0$ACGMOD33 010003280000000000                                                                             1170216110001DRC57               *PGM    RPG       000000000364544QPGMR2    1       1170216110004Stampa  ciclo valorizzato                                                                 $ACGMOD33 QTEMP     V7R2M001110
SAVLIB    *OBJ      SVILUPPOV7R2M0$ACGMOD33 010003280000000000                                                                             1170216110001DRC67               *PGM    RPG       000000000446464QPGMR2    1       1170216110004Simulazione sui centri - calcolo costi propri                                             $ACGMOD33 QTEMP     V7R2M001110
SAVLIB    *OBJ      SVILUPPOV7R2M0$ACGMOD33 010003280000000000                                                                             1170216110001DRO11               *PGM    RPG       000000000634880QPGMR2    1       1170216110004Manutenzione archivio cicli di lavoro                                                     $ACGMOD33 QTEMP     V7R2M001110
SAVLIB    *OBJ      SVILUPPOV7R2M0$ACGMOD33 010003280000000000                                                                             1170216110001DRO20               *PGM    RPG       000000000368640QPGMR2    1       1170216110004Immissione di massa cicli di lavorazione                                                  $ACGMOD33 QTEMP     V7R2M001110
SAVLIB    *OBJ      SVILUPPOV7R2M0$ACGMOD33 010003280000000000                                                                             1170216110001DRO31               *PGM    RPG       000000000372736QPGMR2    1       1170216110004Interrogazione cicli                                                                      $ACGMOD33 QTEMP     V7R2M001110
SAVLIB    *OBJ      SVILUPPOV7R2M0$ACGMOD33 010003280000000000                                                                             1170216110001DRO32               *PGM    RPG       000000000315392QPGMR     1       1170216110004Interrogazione operazioni per centro di lavoro                                            $ACGMOD33 QTEMP     V7R2M001110
SAVLIB    *OBJ      SVILUPPOV7R2M0$ACGMOD33 010003280000000000                                                                             1170216110001DRO51               *PGM    RPG       000000000245760QPGMR2    1       1170216110004Stampa cicli di lavoro                                                                    $ACGMOD33 QTEMP     V7R2M001110
SAVLIB    *OBJ      SVILUPPOV7R2M0$ACGMOD33 010003280000000000                                                                             1170216110001DRO53               *PGM    RPG       000000000266240QPGMR2    1       1170216110004Stampa operazioni per centro di lavoro                                                    $ACGMOD33 QTEMP     V7R2M001110
SAVLIB    *OBJ      SVILUPPOV7R2M0$ACGMOD33 010003280000000000                                                                             1170216110001DRS10               *PGM    RPG       000000000712704QPGMR2    1       1170216110004Manutenzione Distinta Base                                                                $ACGMOD33 QTEMP     V7R2M001110
SAVLIB    *OBJ      SVILUPPOV7R2M0$ACGMOD33 010003280000000000                                                                             1170216110001DRS11               *PGM    RPG       000000001351680QPGMR     1       1170216110004Immiss. di massa movimenti-manutenz.Distinta Base                                         $ACGMOD33 QTEMP     V7R2M001110
SAVLIB    *OBJ      SVILUPPOV7R2M0$ACGMOD33 010003280000000000                                                                             1170216110001DRS15               *PGM    RPG       000000000475136QPGMR2    1       1170216110004Aggiornamento Distinta Base (di massa)                                                    $ACGMOD33 QTEMP     V7R2M001110
SAVLIB    *OBJ      SVILUPPOV7R2M0$ACGMOD33 010003280000000000                                                                             1170216110001DRS31               *PGM    RPG       000000000614400QPGMR     1       1170216110004Interrogazione Distinte Base                                                              $ACGMOD33 QTEMP     V7R2M001110
SAVLIB    *OBJ      SVILUPPOV7R2M0$ACGMOD33 010003280000000000                                                                             1170216110001DRS51               *PGM    RPG       000000000454656QPGMR     1       1170216110004Stampa Distinte Base                                                                      $ACGMOD33 QTEMP     V7R2M001110
SAVLIB    *OBJ      SVILUPPOV7R2M0$ACGMOD33 010003280000000000                                                                             1170216110001ECXPC23             *PGM    CLLE      000000000155648QPGMR2    1       1170216110004Estrazione ordini clienti - OPNQRYF                                                       $ACGMOD33 QTEMP     V7R2M001110
SAVLIB    *OBJ      SVILUPPOV7R2M0$ACGMOD33 010003280000000000                                                                             1170216110001ERXPC23             *PGM    RPG       000000000360448QPGMR2    1       1170216110004Estrazione da ordini clienti                                                              $ACGMOD33 QTEMP     V7R2M001110
SAVLIB    *OBJ      SVILUPPOV7R2M0$ACGMOD33 010003280000000000                                                                             1170216110001FCXBE02             *PGM    CLP       000000000049152QPGMR2    1       1170216110004Bonifico elettronico: genera archivio PBON200F                                            $ACGMOD33 QTEMP     V7R2M001110
SAVLIB    *OBJ      SVILUPPOV7R2M0$ACGMOD33 010003280000000000                                                                             1170216110001FCXBE02_1           *PGM    CLP       000000000053248QPGMR2    1       1170216110004Bonifico elettronico: genera archivio PBON200F                                            $ACGMOD33 QTEMP     V7R2M001110
SAVLIB    *OBJ      SVILUPPOV7R2M0$ACGMOD33 010003280000000000                                                                             1170216110001FCXBE03             *PGM    CLP       000000000098304QPGMR2    1       1170216110004Bonif. elettron.: scarica su supporto                                                     $ACGMOD33 QTEMP     V7R2M001110
SAVLIB    *OBJ      SVILUPPOV7R2M0$ACGMOD33 010003280000000000                                                                             1170216110001FCXBE04             *PGM    CLP       000000000045056QPGMR2    1       1170216110004Bonifico elettronico: riorganizzazione                                                    $ACGMOD33 QTEMP     V7R2M001110
SAVLIB    *OBJ      SVILUPPOV7R2M0$ACGMOD33 010003280000000000                                                                             1170216110001FRXBE01             *PGM    RPG       000000000221184QPGMR2    1       1170216110004CA330     Gestione bonifico elettronico: Guida                                            $ACGMOD33 QTEMP     V7R2M001110
SAVLIB    *OBJ      SVILUPPOV7R2M0$ACGMOD33 010003280000000000                                                                             1170216110001FRXBE02             *PGM    RPG       000000000589824QPGMR2    1       1170216110004Gestione bonifico elettronico: (esec.)                                                    $ACGMOD33 QTEMP     V7R2M001110
SAVLIB    *OBJ      SVILUPPOV7R2M0$ACGMOD33 010003280000000000                                                                             1170216110001FRX47               *PGM    RPG       000000001236992QPGMR2    1       1170216110004Pagamento a fornitori (Stampa lettere)                                                    $ACGMOD33 QTEMP     V7R2M001110
SAVLIB    *OBJ      SVILUPPOV7R2M0$ACGMOD33 010003280000000000                                                                             1170216110001GCOP103             *PGM    CLLE      000000000131072QPGMR2    1       1170216110004Comununicaz. Op. Art.21: Scarico comun.                                                   $ACGMOD33 QTEMP     V7R2M001110
SAVLIB    *OBJ      SVILUPPOV7R2M0$ACGMOD33 010003280000000000                                                                             1170216110001GCX80S              *PGM    CLP       000000000049152QPGMR2    1       1170216110004CA330     Stampa E/C a partite aperte                                                     $ACGMOD33 QTEMP     V7R2M001110
SAVLIB    *OBJ      SVILUPPOV7R2M0$ACGMOD33 010003280000000000                                                                             1170216110001GRA10               *PGM    RPG       000000002129920QPGMR2    1       1170216110004Gest. registr.ni contabili (mov.con IVA)                                                  $ACGMOD33 QTEMP     V7R2M001110
SAVLIB    *OBJ      SVILUPPOV7R2M0$ACGMOD33 010003280000000000                                                                             1170216110001GRA10FAT            *PGM    RPGLE     000000000675840QPGMR2    1       1170216110004Tolgo flag di Fattura/Nota contab. VEN/ACQ                                                $ACGMOD33 QTEMP     V7R2M001110
SAVLIB    *OBJ      SVILUPPOV7R2M0$ACGMOD33 010003280000000000                                                                             1170216110001GRA24               *PGM    RPG       000000001019904QPGMR2    1       1170216110004Acq. reg. cont. di massa (agg. con IVA)                                                   $ACGMOD33 QTEMP     V7R2M001110
SAVLIB    *OBJ      SVILUPPOV7R2M0$ACGMOD33 010003280000000000                                                                             1170216110001GRA31               *PGM    RPG       000000000565248QPGMR2    1       1170216110004Lista registrazioni contabili (esec.)                                                     $ACGMOD33 QTEMP     V7R2M001110
SAVLIB    *OBJ      SVILUPPOV7R2M0$ACGMOD33 010003280000000000                                                                             1170216110001GRDA103             *PGM    RPG       000000000204800QPGMR2    1       1170216110004Dic. sintetica IVA 2010: scarico                                                          $ACGMOD33 QTEMP     V7R2M001110
SAVLIB    *OBJ      SVILUPPOV7R2M0$ACGMOD33 010003280000000000                                                                             1170216110001GRFP101             *PGM    RPG       000000000221184QPGMR2    1       1170216110004Operaz.Paesi Fisc.Priv.: Gest. comunic.                                                   $ACGMOD33 QTEMP     V7R2M001110
SAVLIB    *OBJ      SVILUPPOV7R2M0$ACGMOD33 010003280000000000                                                                             1170216110001GRFP103             *PGM    RPG       000000000278528QPGMR2    1       1170216110004Operaz.Paesi Fisc.Priv.: Scarico comun.                                                   $ACGMOD33 QTEMP     V7R2M001110
SAVLIB    *OBJ      SVILUPPOV7R2M0$ACGMOD33 010003280000000000                                                                             1170216110001GRG11               *PGM    RPG       000000000593920QPGMR2    1       1170216110004Stampa mastrini a RS e saldi GG (esec.)                                                   $ACGMOD33 QTEMP     V7R2M001110
SAVLIB    *OBJ      SVILUPPOV7R2M0$ACGMOD33 010003280000000000                                                                             1170216110001GRG16               *PGM    RPG       000000000262144QPGMR2    1       1170216110004Stampa mastrini a partite aperte (esec.)                                                  $ACGMOD33 QTEMP     V7R2M001110
SAVLIB    *OBJ      SVILUPPOV7R2M0$ACGMOD33 010003280000000000                                                                             1170216110001GRIPLFF             *PGM    RPG       000000000503808QPGMR2    1       1170216110004Prosp. annotazioni mensili plafond fisso                                                  $ACGMOD33 QTEMP     V7R2M001110
SAVLIB    *OBJ      SVILUPPOV7R2M0$ACGMOD33 010003280000000000                                                                             1170216110001GRI11               *PGM    RPG       000000000438272QPGMR2    1       1170216110004Lista di controllo per registri (esec.)                                                   $ACGMOD33 QTEMP     V7R2M001110
SAVLIB    *OBJ      SVILUPPOV7R2M0$ACGMOD33 010003280000000000                                                                             1170216110001GRI15               *PGM    RPG       000000000270336QPGMR2    1       1170216110004Stampa registri IVA                                                                       $ACGMOD33 QTEMP     V7R2M001110
SAVLIB    *OBJ      SVILUPPOV7R2M0$ACGMOD33 010003280000000000                                                                             1170216110001GRI18               *PGM    RPGLE     000000001544192QPGMR2    1       1170216110004Stampa registri IVA definitiva/ristampa                                                   $ACGMOD33 QTEMP     V7R2M001110
SAVLIB    *OBJ      SVILUPPOV7R2M0$ACGMOD33 010003280000000000                                                                             1170216110001GRI25               *PGM    RPG       000000000212992QPGMR2    1       1170216110004CA330     Lista dati IVA (Parametrico)                                                    $ACGMOD33 QTEMP     V7R2M001110
SAVLIB    *OBJ      SVILUPPOV7R2M0$ACGMOD33 010003280000000000                                                                             1170216110001GRI29               *PGM    RPGLE     000000000507904QPGMR2    1       1170216110004Lista dati IVA (x assoggettamento)                                                        $ACGMOD33 QTEMP     V7R2M001110
SAVLIB    *OBJ      SVILUPPOV7R2M0$ACGMOD33 010003280000000000                                                                             1170216110001GRI71               *PGM    RPG       000000001355776QPGMR2    1       1170216110004Gestione registrazioni corrispettivi                                                      $ACGMOD33 QTEMP     V7R2M001110
SAVLIB    *OBJ      SVILUPPOV7R2M0$ACGMOD33 010003280000000000                                                                             1170216110001GRX22               *PGM    RPG       000000000434176QPGMR2    1       1170216110004Acq. registr. Pura Iva di massa (contr.)                                                  $ACGMOD33 QTEMP     V7R2M001110
SAVLIB    *OBJ      SVILUPPOV7R2M0$ACGMOD33 010003280000000000                                                                             1170216110001GRX24               *PGM    RPG       000000000356352QPGMR2    1       1170216110004Acq. registr. Pura Iva di massa (aggio.)                                                  $ACGMOD33 QTEMP     V7R2M001110
SAVLIB    *OBJ      SVILUPPOV7R2M0$ACGMOD33 010003280000000000                                                                             1170216110001GRX71               *PGM    RPG       000000001249280QPGMR2    1       1170216110004Stampa scadenz. cl/fo per codice (esec.)                                                  $ACGMOD33 QTEMP     V7R2M001110
SAVLIB    *OBJ      SVILUPPOV7R2M0$ACGMOD33 010003280000000000                                                                             1170216110001GRX80C              *PGM    RPG       000000000745472QPGMR2    1       1170216110004Int.ne E/C cl/fo a part. aperte per cod.                                                  $ACGMOD33 QTEMP     V7R2M001110
SAVLIB    *OBJ      SVILUPPOV7R2M0$ACGMOD33 010003280000000000                                                                             1170216110001GRX80F              *PGM    RPG       000000000745472QPGMR2    1       1170216110004Int.ne E/C cl/fo a part. aperte per cod.                                                  $ACGMOD33 QTEMP     V7R2M001110
SAVLIB    *OBJ      SVILUPPOV7R2M0$ACGMOD33 010003280000000000                                                                             1170216110001GRX80S              *PGM    RPG       000000000929792QPGMR2    1       1170216110004Stampa E/C a partite aperte (esecuzione)                                                  $ACGMOD33 QTEMP     V7R2M001110
SAVLIB    *OBJ      SVILUPPOV7R2M0$ACGMOD33 010003280000000000                                                                             1170216110001KCLRF               *PGM    CLP       000000000077824QPGMR2    1       1170216110004Pulizia files attivita', Batch, Commit                                                    $ACGMOD33 QTEMP     V7R2M001110
SAVLIB    *OBJ      SVILUPPOV7R2M0$ACGMOD33 010003280000000000                                                                             1170216110001LCS12               *PGM    CLP       000000000040960QPGMR2    1       1170216110004Reorganize file di immissione mov. di magazzino                                           $ACGMOD33 QTEMP     V7R2M001110
SAVLIB    *OBJ      SVILUPPOV7R2M0$ACGMOD33 010003280000000000                                                                             1170216110001LRA01               *PGM    RPG       000000001351680QPGMR2    1       1170216110004Movim. Magazzino - Ricevimento merce e collaudo                                           $ACGMOD33 QTEMP     V7R2M001110
SAVLIB    *OBJ      SVILUPPOV7R2M0$ACGMOD33 010003280000000000                                                                             1170216110001LRA02               *PGM    RPG       000000000794624QPGMR2    1       1170216110004Movim. Magazzino - Spedizione e reso da clienti                                           $ACGMOD33 QTEMP     V7R2M001110
SAVLIB    *OBJ      SVILUPPOV7R2M0$ACGMOD33 010003280000000000                                                                             1170216110001LRA06               *PGM    RPG       000000000561152QPGMR     1       1170216110004Movim. Magazzino - Movimenti a valore                                                     $ACGMOD33 QTEMP     V7R2M001110
SAVLIB    *OBJ      SVILUPPOV7R2M0$ACGMOD33 010003280000000000                                                                             1170216110001LRA07               *PGM    RPG       000000001028096QPGMR2    1       1170216110004Movim. Magazzino - Movimenti di trasferimento                                             $ACGMOD33 QTEMP     V7R2M001110
SAVLIB    *OBJ      SVILUPPOV7R2M0$ACGMOD33 010003280000000000                                                                             1170216110001LRA07SP             *PGM    RPG       000000000995328QPGMR2    1       1170216110004Movimenti di trasferimento x Accorpamento Lotti                                           $ACGMOD33 QTEMP     V7R2M001110
SAVLIB    *OBJ      SVILUPPOV7R2M0$ACGMOD33 010003280000000000                                                                             1170216110001LRA08               *PGM    RPG       000000000888832QPGMR2    1       1170216110004Movim. Magazzino - Movimenti vari                                                         $ACGMOD33 QTEMP     V7R2M001110
SAVLIB    *OBJ      SVILUPPOV7R2M0$ACGMOD33 010003280000000000                                                                             1170216110001LRL01               *PGM    RPG       000000000716800QPGMR2    1       1170216110004Gestione lotti di magazzino                                                               $ACGMOD33 QTEMP     V7R2M001110
SAVLIB    *OBJ      SVILUPPOV7R2M0$ACGMOD33 010003280000000000                                                                             1170216110001LRL03               *PGM    RPG       000000000774144QPGMR2    1       1170216110004Modifica lotti di magazzino                                                               $ACGMOD33 QTEMP     V7R2M001110
SAVLIB    *OBJ      SVILUPPOV7R2M0$ACGMOD33 010003280000000000                                                                             1170216110001LRM12               *PGM    RPG       000000001466368QPGMR2    1       1170216110004Gestione movimenti - Data entry                                                           $ACGMOD33 QTEMP     V7R2M001110
SAVLIB    *OBJ      SVILUPPOV7R2M0$ACGMOD33 010003280000000000                                                                             1170216110001LRSA2               *PGM    RPG       000000000667648QPGMR2    1       1170216110004Gestione inventario fisico (Stampa)                                                       $ACGMOD33 QTEMP     V7R2M001110
SAVLIB    *OBJ      SVILUPPOV7R2M0$ACGMOD33 010003280000000000                                                                             1170216110001LRSA3               *PGM    RPG       000000000581632QPGMR2    1       1170216110004Gestione inventario fisico - Rettifiche                                                   $ACGMOD33 QTEMP     V7R2M001110
SAVLIB    *OBJ      SVILUPPOV7R2M0$ACGMOD33 010003280000000000                                                                             1170216110001LRSA3_1             *PGM    RPG       000000000581632QPGMR2    1       1170216110004Gestione inventario fisico - Rettifiche                                                   $ACGMOD33 QTEMP     V7R2M001110
SAVLIB    *OBJ      SVILUPPOV7R2M0$ACGMOD33 010003280000000000                                                                             1170216110001LRS13               *PGM    RPG       000000001003520QPGMR2    1       1170216110004Immissione di massa movimenti di magazzino                                                $ACGMOD33 QTEMP     V7R2M001110
SAVLIB    *OBJ      SVILUPPOV7R2M0$ACGMOD33 010003280000000000                                                                             1170216110001LRS33               *PGM    RPGLE     000000001937408QPGMR2    1       1170216110004Int.di magazzino - Situazione esistenze                                                   $ACGMOD33 QTEMP     V7R2M001110
SAVLIB    *OBJ      SVILUPPOV7R2M0$ACGMOD33 010003280000000000                                                                             1170216110001LRS40               *PGM    RPG       000000000454656QPGMR2    1       1170216110004Interrogazioni di magazzino                                                               $ACGMOD33 QTEMP     V7R2M001110
SAVLIB    *OBJ      SVILUPPOV7R2M0$ACGMOD33 010003280000000000                                                                             1170216110001LRS68               *PGM    RPG       000000000126976QPGMR2    1       1170216110004Esecuzione chiusura periodica                                                             $ACGMOD33 QTEMP     V7R2M001110
SAVLIB    *OBJ      SVILUPPOV7R2M0$ACGMOD33 010003280000000000                                                                             1170216110001LRS81               *PGM    RPG       000000000393216QPGMR2    1       1170216110004Interrogazioni a valore                                                                   $ACGMOD33 QTEMP     V7R2M001110
SAVLIB    *OBJ      SVILUPPOV7R2M0$ACGMOD33 010003280000000000                                                                             1170216110001LRS95               *PGM    RPG       000000000978944QPGMR     1       1170216110004Stampa schede - Esecuzione                                                                $ACGMOD33 QTEMP     V7R2M001110
SAVLIB    *OBJ      SVILUPPOV7R2M0$ACGMOD33 010003280000000000                                                                             1170216110001LRV01               *PGM    RPG       000000001028096QPGMR     1       1170216110004Interrog. - Schede di magazzino                                                           $ACGMOD33 QTEMP     V7R2M001110
SAVLIB    *OBJ      SVILUPPOV7R2M0$ACGMOD33 010003280000000000                                                                             1170216110001LRX02               *PGM    RPG       000000000303104QPGMR2    1       1170216110004Selezione lotti per articolo/magazzino                                                    $ACGMOD33 QTEMP     V7R2M001110
SAVLIB    *OBJ      SVILUPPOV7R2M0$ACGMOD33 010003280000000000                                                                             1170216110001LRX03               *PGM    RPG       000000000319488QPGMR2    1       1170216110004Selezione lotti per articolo/magazzino                                                    $ACGMOD33 QTEMP     V7R2M001110
SAVLIB    *OBJ      SVILUPPOV7R2M0$ACGMOD33 010003280000000000                                                                             1170216110001LRX10               *PGM    RPGLE     000000001269760QPGMR2    1       1170216110004Riallineamento archivi (esec)                                                             $ACGMOD33 QTEMP     V7R2M001110
SAVLIB    *OBJ      SVILUPPOV7R2M0$ACGMOD33 010003280000000000                                                                             1170216110001M2RS02              *PGM    RPG       000000000561152QPGMR     1       1170216110004Aggiornamenti immissione massa movimenti produz.                                          $ACGMOD33 QTEMP     V7R2M001110
SAVLIB    *OBJ      SVILUPPOV7R2M0$ACGMOD33 010003280000000000                                                                             1170216110001M2RS03              *PGM    RPGLE     000000006561792QPGMR     1       1170216110004Emissione movimenti di produzione                                                         $ACGMOD33 QTEMP     V7R2M001110
SAVLIB    *OBJ      SVILUPPOV7R2M0$ACGMOD33 010003280000000000                                                                             1170216110001M2RS03_1            *PGM    RPGLE     000000006594560QPGMR2    1       1170216110004Emissione movimenti di produzione                                                         $ACGMOD33 QTEMP     V7R2M001110
SAVLIB    *OBJ      SVILUPPOV7R2M0$ACGMOD33 010003280000000000                                                                             1170216110001M2RS04              *PGM    RPGLE     000000004460544QPGMR2    1       1170216110004Modifica Movimenti Produzione (Versamento 3)                                              $ACGMOD33 QTEMP     V7R2M001110
SAVLIB    *OBJ      SVILUPPOV7R2M0$ACGMOD33 010003280000000000                                                                             1170216110001M2RS05              *PGM    RPG       000000001159168QPGMR2    1       1170216110004Modifica Movimenti Produzione (Prelievo 4)                                                $ACGMOD33 QTEMP     V7R2M001110
SAVLIB    *OBJ      SVILUPPOV7R2M0$ACGMOD33 010003280000000000                                                                             1170216110001M7RC1S07            *PGM    RPG       000000001064960QPGMR2    1       1170216110004Certificazione annuale - Stampa Dettaglio compensi                                        $ACGMOD33 QTEMP     V7R2M001110
SAVLIB    *OBJ      SVILUPPOV7R2M0$ACGMOD33 010003280000000000                                                                             1170216110001M7RC1S6             *PGM    RPG       000000000602112QPGMR2    1       1170216110004Certificazioni annuali - Lettura perc. x M7RC1S06                                         $ACGMOD33 QTEMP     V7R2M001110
SAVLIB    *OBJ      SVILUPPOV7R2M0$ACGMOD33 010003280000000000                                                                             1170216110001ORO67               *PGM    RPGLE     000000001503232QPGMR2    1       1170216110004Stampa conferme d'ordine QuickPress                                                       $ACGMOD33 QTEMP     V7R2M001110
SAVLIB    *OBJ      SVILUPPOV7R2M0$ACGMOD33 010003280000000000                                                                             1170216110001O2RE02              *PGM    RPG       000000001892352QPGMR2    1       1170216110004Evasione : Gestione righe                                                                 $ACGMOD33 QTEMP     V7R2M001110
SAVLIB    *OBJ      SVILUPPOV7R2M0$ACGMOD33 010003280000000000                                                                             1170216110001O2RE05              *PGM    RPG       000000001671168QPGMR2    1       1170216110004Evasione : Modifica evasione                                                              $ACGMOD33 QTEMP     V7R2M001110
SAVLIB    *OBJ      SVILUPPOV7R2M0$ACGMOD33 010003280000000000                                                                             1170216110001O2RE08              *PGM    RPG       000000000430080QPGMR2    1       1170216110004Evasione : Testata Evasione  (F14)                                                        $ACGMOD33 QTEMP     V7R2M001110
SAVLIB    *OBJ      SVILUPPOV7R2M0$ACGMOD33 010003280000000000                                                                             1170216110001O2RE09              *PGM    RPG       000000001171456QPGMR2    1       1170216110004Evasione : Aggiunta righe    (F17)                                                        $ACGMOD33 QTEMP     V7R2M001110
SAVLIB    *OBJ      SVILUPPOV7R2M0$ACGMOD33 010003280000000000                                                                             1170216110001O2RE10              *PGM    RPGLE     000000002592768QPGMR2    1       1170216110004Evasione : Stampa evasioni (parametrico) *New W Mx                                        $ACGMOD33 QTEMP     V7R2M001110
SAVLIB    *OBJ      SVILUPPOV7R2M0$ACGMOD33 010003280000000000                                                                             1170216110001O2RE10_1            *PGM    RPGLE     000000002920448QPGMR2    1       1170216110004Evasione : Stampa evasioni (parametrico) *New W Mx                                        $ACGMOD33 QTEMP     V7R2M001110
SAVLIB    *OBJ      SVILUPPOV7R2M0$ACGMOD33 010003280000000000                                                                             1170216110001PRP45               *PGM    RPG       000000000299008QPGMR2    1       1170216110004Scarico ricevute su supporto esterno                                                      $ACGMOD33 QTEMP     V7R2M001110
SAVLIB    *OBJ      SVILUPPOV7R2M0$ACGMOD33 010003280000000000                                                                             1170216110001PRXGDST             *PGM    RPG       000000000524288QPGMR2    1       1170216110004Stampa distinte (esec.)                                                                   $ACGMOD33 QTEMP     V7R2M001110
SAVLIB    *OBJ      SVILUPPOV7R2M0$ACGMOD33 010003280000000000                                                                             1170216110001RCIM01              *PGM    CLP       000000000069632QPGMR2    1       1170216110004RA330     Immissione di massa mov. contabili                                              $ACGMOD33 QTEMP     V7R2M001110
SAVLIB    *OBJ      SVILUPPOV7R2M0$ACGMOD33 010003280000000000                                                                             1170216110001RRCA02S             *PGM    RPGLE     000000000544768QPGMR2    1       1170216110004RA330     Stampa Certificazioni Annuali                                                   $ACGMOD33 QTEMP     V7R2M001110
SAVLIB    *OBJ      SVILUPPOV7R2M0$ACGMOD33 010003280000000000                                                                             1170216110001RRQD02              *PGM    RPGLE     000000000839680QPGMR2    1       1170216110004RA330     Gestione Dati lav. autonomo, provvigioni                                        $ACGMOD33 QTEMP     V7R2M001110
SAVLIB    *OBJ      SVILUPPOV7R2M0$ACGMOD33 010003280000000000                                                                             1170216110001TEST                *PGM    CLP       000000000045056QPGMR2    1       1170216110004RA330     Immissione di massa mov. contabili                                              $ACGMOD33 QTEMP     V7R2M001110
SAVLIB    *OBJ      SVILUPPOV7R2M0$ACGMOD33 010003280000000000                                                                             1170216110001TRM01               *PGM    RPG       000000002404352QPGMR2    1       1170216110004Immissione/Gestione movimenti Terzisti                                                    $ACGMOD33 QTEMP     V7R2M001110
SAVLIB    *OBJ      SVILUPPOV7R2M0$ACGMOD33 010003280000000000                                                                             1170216110001TRM02               *PGM    RPG       000000001396736QPGMR2    1       1170216110004Modifica movimenti Terzisti (Prelievi '9')                                                $ACGMOD33 QTEMP     V7R2M001110
SAVLIB    *OBJ      SVILUPPOV7R2M0$ACGMOD33 010003280000000000                                                                             1170216110001TRM06               *PGM    RPG       000000001789952QPGMR2    1       1170216110004Modifica movimenti Terzisti (Ricevimenti 'D')                                             $ACGMOD33 QTEMP     V7R2M001110
SAVLIB    *OBJ      SVILUPPOV7R2M0$ACGMOD33 010003280000000000                                                                             1170216110001TRM07               *PGM    RPG       000000001220608QPGMR2    1       1170216110004Modifica movimenti Terzisti (Prestito 'E')                                                $ACGMOD33 QTEMP     V7R2M001110
SAVLIB    *OBJ      SVILUPPOV7R2M0$ACGMOD33 010003280000000000                                                                             1170216110001TRM84               *PGM    RPGLE     000000001069056QPGMR2    1       1170216110004Docum.di trasferim. a terzista-Stampa/ristampa                                            $ACGMOD33 QTEMP     V7R2M001110
SAVLIB    *OBJ      SVILUPPOV7R2M0$ACGMOD33 010003280000000000                                                                             1170216110001TRM85               *PGM    RPGLE     000000002580480QPGMR2    1       1170216110004Docum.di trasferim. a terzista-Prep./modifica                                             $ACGMOD33 QTEMP     V7R2M001110
SAVLIB    *OBJ      SVILUPPOV7R2M0$ACGMOD33 010003280000000000                                                                             1170216110001TRO08               *PGM    RPG       000000000491520QPGMR2    1       1170216110004Visualizzazione, cancellazione stampa righe a terz                                        $ACGMOD33 QTEMP     V7R2M001110
SAVLIB    *OBJ      SVILUPPOV7R2M0$ACGMOD33 010003280000000000                                                                             1170216110001TRO10               *PGM    RPG       000000000901120QPGMR2    1       1170216110004Immissione ordini a terzista                                                              $ACGMOD33 QTEMP     V7R2M001110
SAVLIB    *OBJ      SVILUPPOV7R2M0$ACGMOD33 010003280000000000                                                                             1170216110001TRO11               *PGM    RPG       000000000745472QPGMR2    1       1170216110004Immissione impegni per terzisti                                                           $ACGMOD33 QTEMP     V7R2M001110
SAVLIB    *OBJ      SVILUPPOV7R2M0$ACGMOD33 010003280000000000                                                                             1170216110001TRO21               *PGM    RPG       000000000888832QPGMR2    1       1170216110004Manutenzione ordini a terzisti                                                            $ACGMOD33 QTEMP     V7R2M001110
SAVLIB    *OBJ      SVILUPPOV7R2M0$ACGMOD33 010003280000000000                                                                             1170216110001TRO55               *PGM    RPG       000000000262144QPGMR2    1       1170216110004Contabilizzazione fatture di terzisti                                                     $ACGMOD33 QTEMP     V7R2M001110
SAVLIB    *OBJ      SVILUPPOV7R2M0$ACGMOD33 010003280000000000                                                                             1170216110001V2RB72              *PGM    RPGLE     000000001761280QPGMR2    1       1170216110004Stampa/Ristampa bolle                                                                     $ACGMOD33 QTEMP     V7R2M001110
SAVLIB    *OBJ      SVILUPPOV7R2M0$ACGMOD33 010003280000000000                                                                             1170216110001V2RC66              *PGM    RPG       000000001036288QPGMR2    1       1170216110004Pre-stampa bolle da ordini: esecuzione                                                    $ACGMOD33 QTEMP     V7R2M001110
SAVLIB    *OBJ      SVILUPPOV7R2M0$ACGMOD33 010003280000000000                                                                             1170216110001V2RD02              *PGM    RPGLE     000000001044480QPGMR2    1       1170216110004Stampa nota di accredito                                                                  $ACGMOD33 QTEMP     V7R2M001110
SAVLIB    *OBJ      SVILUPPOV7R2M0$ACGMOD33 010003280000000000                                                                             1170216110001V2RD08              *PGM    RPGLE     000000001224704QPGMR     1       1170216110004Stampa bolla (SENZA ORDINE CLIENTE)                                                       $ACGMOD33 QTEMP     V7R2M001110
SAVLIB    *OBJ      SVILUPPOV7R2M0$ACGMOD33 010003280000000000                                                                             1170216110001V2RD12              *PGM    RPG       000000001630208QPGMR2    1       1170216110004Immissione di massa bolle e note: esecuzione                                              $ACGMOD33 QTEMP     V7R2M001110
SAVLIB    *OBJ      SVILUPPOV7R2M0$ACGMOD33 010003280000000000                                                                             1170216110001V2RF66              *PGM    RPG       000000001429504QPGMR2    1       1170216110004Pre-stampa fatture: esecuzione                                                            $ACGMOD33 QTEMP     V7R2M001110
SAVLIB    *OBJ      SVILUPPOV7R2M0$ACGMOD33 010003280000000000                                                                             1170216110001V2RF67              *PGM    RPG       000000000724992QPGMR2    1       1170216110004Calcolo fattura e contabilizzazione                                                       $ACGMOD33 QTEMP     V7R2M001110
SAVLIB    *OBJ      SVILUPPOV7R2M0$ACGMOD33 010003280000000000                                                                             1170216110001V2RF72              *PGM    RPGLE     000000002428928QPGMR2    1       1170216110004Stampa fattura Italia/estero MODULO A4  *ENDMOD                                           $ACGMOD33 QTEMP     V7R2M001110
SAVLIB    *OBJ      SVILUPPOV7R2M0$ACGMOD33 010003280000000000                                                                             1170216110001V2RF87              *PGM    RPG       000000000454656QPGMR2    1       1170216110004Annullamento singola fattura                                                              $ACGMOD33 QTEMP     V7R2M001110
SAVLIB    *OBJ      SVILUPPOV7R2M0$ACGMOD33 010003280000000000                                                                             1170216110001V2RG04              *PGM    RPG       000000003121152QPGMR2    1       1170216110004Gestione documenti - Acquisizione Righe documenti                                         $ACGMOD33 QTEMP     V7R2M001110
SAVLIB    *OBJ      SVILUPPOV7R2M0$ACGMOD33 010003280000000000                                                                             1170216110001V2RG05              *PGM    RPG       000000002101248QPGMR     1       1170216110004Gestione documenti - Acquisizione Testata                                                 $ACGMOD33 QTEMP     V7R2M001110
SAVLIB    *OBJ      SVILUPPOV7R2M0$ACGMOD33 010003280000000000                                                                             1170216110001V2RG10              *PGM    RPG       000000001220608QPGMR2    1       1170216110004Stampa bolle e fatture da ordini o evasione                                               $ACGMOD33 QTEMP     V7R2M001110
SAVLIB    *OBJ      SVILUPPOV7R2M0$ACGMOD33 010003280000000000                                                                             1170216110001V2RG11              *PGM    RPG       000000000720896QPGMR2    1       1170216110004Gestione documenti - Cancellazione                                                        $ACGMOD33 QTEMP     V7R2M001110
SAVLIB    *OBJ      SVILUPPOV7R2M0$ACGMOD33 010003280000000000                                                                             1170216110001V2RI04              *PGM    RPG       000000000626688QPGMR2    1       1170216110004Interr. Doc.ti - Documento - F14=Testate doc                                              $ACGMOD33 QTEMP     V7R2M001110
SAVLIB    *OBJ      SVILUPPOV7R2M0$ACGMOD33 010003280000000000                                                                             1170216110001V2RI05              *PGM    RPG       000000000761856QPGMR     1       1170216110004Interr. Doc.ti - Dettaglio righe                                                          $ACGMOD33 QTEMP     V7R2M001110
SAVLIB    *OBJ      SVILUPPOV7R2M0$ACGMOD33 010003280000000000                                                                             1170216110001V2RL01              *PGM    RPG       000000000491520QPGMR2    1       1170216110004Programma di movimentazione lotti                                                         $ACGMOD33 QTEMP     V7R2M001110
SAVLIB    *OBJ      SVILUPPOV7R2M0$ACGMOD33 010003280000000000                                                                             1170216110001V2RL02              *PGM    RPGLE     000000001765376QPGMR2    1       1170216110004Programma gestione della finestra con i lotti                                             $ACGMOD33 QTEMP     V7R2M001110
SAVLIB    *OBJ      SVILUPPOV7R2M0$ACGMOD33 010003280000000000                                                                             1170216110001V2RO12              *PGM    RPG       000000001908736QPGMR2    1       1170216110004Immissione di massa ordini clienti: esecuzione                                            $ACGMOD33 QTEMP     V7R2M001110
SAVLIB    *OBJ      SVILUPPOV7R2M0$ACGMOD33 010003280000000000                                                                             1170216110001V2RU91              *PGM    RPG       000000000901120QPGMR2    1       1170216110004Collegamento magazzino immediato: esecuzione                                              $ACGMOD33 QTEMP     V7R2M001110
SAVLIB    *OBJ      SVILUPPOV7R2M0$ACGMOD33 010003280000000000                                                                             1170216110001V2RX03              *PGM    RPG       000000000266240QPGMR2    1       1170216110004Calcolo prezzi e sconti                                                                   $ACGMOD33 QTEMP     V7R2M001110
SAVLIB    *OBJ      SVILUPPOV7R2M0$ACGMOD33 010003280000000000                                                                             1170216110001V2RX06              *PGM    RPGLE     000000001716224QPGMR     1       1170216110004Gestione documenti - Formato di uscita                                                    $ACGMOD33 QTEMP     V7R2M001110
SAVLIB    *OBJ      SVILUPPOV7R2M0$ACGMOD33 010003280000000000                                                                             1170216110001V2TX01              *PGM    RPG       000000000151552QPGMR2    1       1170216110004Tool di riallineamento progressivo clienti                                                $ACGMOD33 QTEMP     V7R2M001110
SAVLIB    *OBJ      SVILUPPOV7R2M0$ACGMOD33 010003280000000000                                                                             1170216110001ZRC21               *PGM    RPG       000000000987136QPGMR     1       1170216110004Immissione di massa fatture di acquisto-Gestione                                          $ACGMOD33 QTEMP     V7R2M001110
SAVLIB    *OBJ      SVILUPPOV7R2M0$ACGMOD33 010003280000000000                                                                             1170216110001ZRC23               *PGM    RPG       000000000434176QPGMR2    1       1170216110004Contabilizzazione fatture di acquisto- Aggiornam.                                         $ACGMOD33 QTEMP     V7R2M001110
SAVLIB    *OBJ      SVILUPPOV7R2M0$ACGMOD33 010003280000000000                                                                             1170216110001ZRFJFET             *PGM    RPG       000000001925120QPGMR     1       1170216110004Controllo fatture di Acquisto Testata+Righe                                               $ACGMOD33 QTEMP     V7R2M001110
SAVLIB    *OBJ      SVILUPPOV7R2M0$ACGMOD33 010003280000000000                                                                             1170216110001ZRFJ4DF             *PGM    RPG       000000001552384QPGMR     1       1170216110004FAT: W Lista movimenti        Display file                                               $ACGMOD33 QTEMP     V7R2M001110
SAVLIB    *OBJ      SVILUPPOV7R2M0$ACGMOD33 010003280000000000                                                                             1170216110001ZRFKQD1             *PGM    RPG       000000000806912QPGMR     1       1170216110004FAT: V Dettaglio          Display record(1 screen)                                        $ACGMOD33 QTEMP     V7R2M001110
SAVLIB    *OBJ      SVILUPPOV7R2M0$ACGMOD33 010003280000000000                                                                             1170216110001ZRFLHD1             *PGM    RPG       000000000647168QPGMR2    1       1170216110004FAT: V Dettaglio x ORFO   Display record(1 screen)                                        $ACGMOD33 QTEMP     V7R2M001110
SAVLIB    *OBJ      SVILUPPOV7R2M0$ACGMOD33 010003280000000000                                                                             1170216110001ZRM12               *PGM    RPGLE     000000004128768QPGMR2    1       1170216110004Ricevimento merce e collaudo - Gestione movimenti                                         $ACGMOD33 QTEMP     V7R2M001110
SAVLIB    *OBJ      SVILUPPOV7R2M0$ACGMOD33 010003280000000000                                                                             1170216110001ZRM51               *PGM    RPG       000000000258048QPGMR2    1       1170216110004Interr. ordini di acquisto - movim. di magazzino                                          $ACGMOD33 QTEMP     V7R2M001110
SAVLIB    *OBJ      SVILUPPOV7R2M0$ACGMOD33 010003280000000000                                                                             1170216110001ZRO11               *PGM    RPGLE     000000005124096QPGMR     1       1170216110004Gestione ordini di acquisto - Testata e Righe ord.                                        $ACGMOD33 QTEMP     V7R2M001110
SAVLIB    *OBJ      SVILUPPOV7R2M0$ACGMOD33 010003280000000000                                                                             1170216110001ZRO11_1             *PGM    RPG       000000002289664QPGMR2    1       1170216110004Gestione ordini di acquisto - Testata e Righe ord.                                        $ACGMOD33 QTEMP     V7R2M001110
SAVLIB    *OBJ      SVILUPPOV7R2M0$ACGMOD33 010003280000000000                                                                             1170216110001ZRO14               *PGM    RPG       000000000188416QPGMR2    1       1170216110004Gestione ordini di acquisto - Commenti                                                    $ACGMOD33 QTEMP     V7R2M001110
SAVLIB    *OBJ      SVILUPPOV7R2M0$ACGMOD33 010003280000000000                                                                             1170216110001ZRO15               *PGM    RPG       000000001286144QPGMR     1       1170216110004Gestione ordini di acquisto - Riga ordine                                                 $ACGMOD33 QTEMP     V7R2M001110
SAVLIB    *OBJ      SVILUPPOV7R2M0$ACGMOD33 010003280000000000                                                                             1170216110001ZRO15_1             *PGM    RPG       000000002285568QPGMR2    1       1170216110004Gestione ordini di acquisto - Riga ordine                                                 $ACGMOD33 QTEMP     V7R2M001110
SAVLIB    *OBJ      SVILUPPOV7R2M0$ACGMOD33 010003280000000000                                                                             1170216110001ZRO16               *PGM    RPG       000000000249856QPGMR2    1       1170216110004Gestione ordini di acquisto - Riga descrittiva                                            $ACGMOD33 QTEMP     V7R2M001110
SAVLIB    *OBJ      SVILUPPOV7R2M0$ACGMOD33 010003280000000000                                                                             1170216110001ZRO17               *PGM    RPG       000000000315392QPGMR2    1       1170216110004Annullamento completo di un ordine di acquisto                                            $ACGMOD33 QTEMP     V7R2M001110
SAVLIB    *OBJ      SVILUPPOV7R2M0$ACGMOD33 010003280000000000                                                                             1170216110001ZRO21               *PGM    RPG       000000000360448QPGMR2    1       1170216110004Fines. dati da elaborare e Lista ordini                                                   $ACGMOD33 QTEMP     V7R2M001110
SAVLIB    *OBJ      SVILUPPOV7R2M0$ACGMOD33 010003280000000000                                                                             1170216110001ZRO53               *PGM    RPG       000000000339968QPGMR     1       1170216110004Interr. ordini di acquisto - Visualizzazione riga                                         $ACGMOD33 QTEMP     V7R2M001110
SAVLIB    *OBJ      SVILUPPOV7R2M0$ACGMOD33 010003280000000000                                                                             1170216110001ZRO55               *PGM    RPG       000000000352256QPGMR2    1       1170216110004Interr. ordini di acquisto - Visualizzaz. testata                                         $ACGMOD33 QTEMP     V7R2M001110
SAVLIB    *OBJ      SVILUPPOV7R2M0$ACGMOD33 010003280000000000                                                                             1170216110001ZRO82               *PGM    RPG       000000000430080QPGMR2    1       1170216110004Esec. Imm. di massa ordini di acquisto - testate                                          $ACGMOD33 QTEMP     V7R2M001110
SAVLIB    *OBJ      SVILUPPOV7R2M0$ACGMOD33 010003280000000000                                                                             1170216110001ZRO82_1             *PGM    RPG       000000000430080QPGMR2    1       1170216110004Esec. Imm. di massa ordini di acquisto - testate                                          $ACGMOD33 QTEMP     V7R2M001110
SAVLIB    *OBJ      SVILUPPOV7R2M0$ACGMOD33 010003280000000000                                                                             1170216110001ZRO83               *PGM    RPG       000000000516096QPGMR2    1       1170216110004Esec. Imm. di massa ordini di acquisto - righe                                            $ACGMOD33 QTEMP     V7R2M001110
SAVLIB    *OBJ      SVILUPPOV7R2M0$ACGMOD33 010003280000000000                                                                             1170216110001O2RE10NEW           *MODULE RPGLE     000000002752512QPGMR2    1       1170216110004Evasione : Stampa evasioni (parametrico) *New W Mx                                        $ACGMOD33 QTEMP     V7R2M001110
SAVLIB    *OBJ      SVILUPPOV7R2M0$ACGMOD33 010003280000000000                                                                             1170216110001V2RB72              *MODULE RPGLE     000000001699840QPGMR2    1       1170216110004Stampa/Ristampa bolle                                                                     $ACGMOD33 QTEMP     V7R2M001110
SAVLIB    *OBJ      SVILUPPOV7R2M0$ACGMOD33 010003280000000000                                                                             1170216110001ARAA100V            *FILE   DSPF      000000000065536QPGMR2    1       1170216110004Gestione Articoli  SHARE(*YES)  LVLCHK(*NO)                                               $ACGMOD33 QTEMP     V7R2M001110
SAVLIB    *OBJ      SVILUPPOV7R2M0$ACGMOD33 010003280000000000                                                                             1170216110001ARAA700V            *FILE   DSPF      000000000151552QPGMR2    1       1170216110004Manutenzione articoli                                                                     $ACGMOD33 QTEMP     V7R2M001110
SAVLIB    *OBJ      SVILUPPOV7R2M0$ACGMOD33 010003280000000000                                                                             1170216110001ARAA900V            *FILE   DSPF      000000000045056QPGMR2    1       1170216110004Gestione articoli in magazzino                                                            $ACGMOD33 QTEMP     V7R2M001110
SAVLIB    *OBJ      SVILUPPOV7R2M0$ACGMOD33 010003280000000000                                                                             1170216110001ARAB300V            *FILE   DSPF      000000000036864QPGMR2    1       1170216110004Gestione Banche                                                                           $ACGMOD33 QTEMP     V7R2M001110
SAVLIB    *OBJ      SVILUPPOV7R2M0$ACGMOD33 010003280000000000                                                                             1170216110001ARAC300V            *FILE   DSPF      000000000200704QPGMR2    1       1170216110004Gestione clienti                                                                          $ACGMOD33 QTEMP     V7R2M001110
SAVLIB    *OBJ      SVILUPPOV7R2M0$ACGMOD33 010003280000000000                                                                             1170216110001ARAF000V            *FILE   DSPF      000000000036864QPGMR2    1       1170216110004Gestione Fornitori                                                                        $ACGMOD33 QTEMP     V7R2M001110
SAVLIB    *OBJ      SVILUPPOV7R2M0$ACGMOD33 010003280000000000                                                                             1170216110001ARAF300V            *FILE   DSPF      000000000143360QPGMR2    1       1170216110004Gestione fornitori                                                                        $ACGMOD33 QTEMP     V7R2M001110
SAVLIB    *OBJ      SVILUPPOV7R2M0$ACGMOD33 010003280000000000                                                                             1170216110001ARALA00V            *FILE   DSPF      000000000024576QPGMR2    1       1170216110004Gestione dettaglio listini (senza scaglioni)                                              $ACGMOD33 QTEMP     V7R2M001110
SAVLIB    *OBJ      SVILUPPOV7R2M0$ACGMOD33 010003280000000000                                                                             1170216110001ARAL100V            *FILE   DSPF      000000000032768QPGMR2    1       1170216110004Gestione listini - Guida      LVLCHK(*NO)                                                 $ACGMOD33 QTEMP     V7R2M001110
SAVLIB    *OBJ      SVILUPPOV7R2M0$ACGMOD33 010003280000000000                                                                             1170216110001ARAL300V            *FILE   DSPF      000000000024576QPGMR2    1       1170216110004Gestione Testate listini      LVLCHK(*NO)                                                 $ACGMOD33 QTEMP     V7R2M001110
SAVLIB    *OBJ      SVILUPPOV7R2M0$ACGMOD33 010003280000000000                                                                             1170216110001ARAL600V            *FILE   DSPF      000000000016384QPGMR2    1       1170216110004Gestione Listini (lista)                                                                  $ACGMOD33 QTEMP     V7R2M001110
SAVLIB    *OBJ      SVILUPPOV7R2M0$ACGMOD33 010003280000000000                                                                             1170216110001ARAL900V            *FILE   DSPF      000000000020480QPGMR2    1       1170216110004Gestione Omaggi e Offerte speciali                                                        $ACGMOD33 QTEMP     V7R2M001110
SAVLIB    *OBJ      SVILUPPOV7R2M0$ACGMOD33 010003280000000000                                                                             1170216110001ARIN100V            *FILE   DSPF      000000000016384QPGMR2    1       1170216110004dspf - Gest. indirizzi cli/for da gest.Anagr                                              $ACGMOD33 QTEMP     V7R2M001110
SAVLIB    *OBJ      SVILUPPOV7R2M0$ACGMOD33 010003280000000000                                                                             1170216110001ARIN100V_1          *FILE   DSPF      000000000016384QPGMR2    1       1170216110004dspf - Gest. indirizzi cli/for da gest.Anagr                                              $ACGMOD33 QTEMP     V7R2M001110
SAVLIB    *OBJ      SVILUPPOV7R2M0$ACGMOD33 010003280000000000                                                                             1170216110001ARIN200V            *FILE   DSPF      000000000012288QPGMR2    1       1170216110004dspf - Gest.indir. cli/for da gest. Ord/Fat                                               $ACGMOD33 QTEMP     V7R2M001110
SAVLIB    *OBJ      SVILUPPOV7R2M0$ACGMOD33 010003280000000000                                                                             1170216110001ARIN200V_1          *FILE   DSPF      000000000012288QPGMR2    1       1170216110004dspf - Gest.indir. cli/for da gest. Ord/Fat                                               $ACGMOD33 QTEMP     V7R2M001110
SAVLIB    *OBJ      SVILUPPOV7R2M0$ACGMOD33 010003280000000000                                                                             1170216110001ARIN300V            *FILE   DSPF      000000000016384QPGMR2    1       1170216110004Dspf - Gestione indirizzi clienti o fornitori                                             $ACGMOD33 QTEMP     V7R2M001110
SAVLIB    *OBJ      SVILUPPOV7R2M0$ACGMOD33 010003280000000000                                                                             1170216110001ARP1400V            *FILE   DSPF      000000000020480QPGMR2    1       1170216110004Tabella Pers. Vendite                 (video)                                             $ACGMOD33 QTEMP     V7R2M001110
SAVLIB    *OBJ      SVILUPPOV7R2M0$ACGMOD33 010003280000000000                                                                             1170216110001ARXR200V            *FILE   DSPF      000000000032768QPGMR2    1       1170216110004Gestione Riservatezza (video)                                                             $ACGMOD33 QTEMP     V7R2M001110
SAVLIB    *OBJ      SVILUPPOV7R2M0$ACGMOD33 010003280000000000                                                                             1170216110001ARX6200V            *FILE   DSPF      000000000020480QPGMR2    1       1170216110004Tabella Divise estere LVLCHK(*NO)                                                         $ACGMOD33 QTEMP     V7R2M001110
SAVLIB    *OBJ      SVILUPPOV7R2M0$ACGMOD33 010003280000000000                                                                             1170216110001ARX6300P            *FILE   PRTF      000000000012288QPGMR2    1       1170216110004Tabella Vettori clienti          (stampa) (VEC)                                           $ACGMOD33 QTEMP     V7R2M001110
SAVLIB    *OBJ      SVILUPPOV7R2M0$ACGMOD33 010003280000000000                                                                             1170216110001ARX6300V            *FILE   DSPF      000000000012288QPGMR2    1       1170216110004Tabella Vettori clienti             (video)  (V                                           $ACGMOD33 QTEMP     V7R2M001110
SAVLIB    *OBJ      SVILUPPOV7R2M0$ACGMOD33 010003280000000000                                                                             1170216110001AR07G00V            *FILE   DSPF      000000000069632QPGMR2    1       1170216110004Centri di lavoro LVLCHK(*NO)                                                              $ACGMOD33 QTEMP     V7R2M001110
SAVLIB    *OBJ      SVILUPPOV7R2M0$ACGMOD33 010003280000000000                                                                             1170216110001AR10A00V            *FILE   DSPF      000000000020480QPGMR2    1       1170216110004Ricerca clienti (finestra)                                                                $ACGMOD33 QTEMP     V7R2M001110
SAVLIB    *OBJ      SVILUPPOV7R2M0$ACGMOD33 010003280000000000                                                                             1170216110001AR12A00V            *FILE   DSPF      000000000016384QPGMR2    1       1170216110004Gestione Conti:  Finestra           (video)                                               $ACGMOD33 QTEMP     V7R2M001110
SAVLIB    *OBJ      SVILUPPOV7R2M0$ACGMOD33 010003280000000000                                                                             1170216110001AR14G00V            *FILE   DSPF      000000000065536QPGMR2    1       1170216110004Costi delle parti  LVLCHK(*NO)                                                            $ACGMOD33 QTEMP     V7R2M001110
SAVLIB    *OBJ      SVILUPPOV7R2M0$ACGMOD33 010003280000000000                                                                             1170216110001AR16S60P            *FILE   PRTF      000000000012288QPGMR2    1       1170216110004Stampa Depositi esterni                                                                   $ACGMOD33 QTEMP     V7R2M001110
SAVLIB    *OBJ      SVILUPPOV7R2M0$ACGMOD33 010003280000000000                                                                             1170216110001AR19A00V            *FILE   DSPF      000000000020480QPGMR2    1       1170216110004Ricerca fornitori (finestra)                                                              $ACGMOD33 QTEMP     V7R2M001110
SAVLIB    *OBJ      SVILUPPOV7R2M0$ACGMOD33 010003280000000000                                                                             1170216110001CAMBI00V            *FILE   DSPF      000000000032768QPGMR2    1       1170216110004Collaudo calcolo controvalori                                                             $ACGMOD33 QTEMP     V7R2M001110
SAVLIB    *OBJ      SVILUPPOV7R2M0$ACGMOD33 010003280000000000                                                                             1170216110001CRC0100V            *FILE   DSPF      000000000012288QPGMR2    1       1170216110004CA330     Parametrico situazione clienti                                                  $ACGMOD33 QTEMP     V7R2M001110
SAVLIB    *OBJ      SVILUPPOV7R2M0$ACGMOD33 010003280000000000                                                                             1170216110001CRC1500V            *FILE   DSPF      000000000028672QPGMR2    1       1170216110004Stampa/Vis.scadenz.clienti  - LVLCHK(*NO)                                                 $ACGMOD33 QTEMP     V7R2M001110
SAVLIB    *OBJ      SVILUPPOV7R2M0$ACGMOD33 010003280000000000                                                                             1170216110001C2RJ100P            *FILE   PRTF      000000000012288QPGMR2    1       1170216110004Stampa segnalaz.calcolo HOLD(*YES)                                                        $ACGMOD33 QTEMP     V7R2M001110
SAVLIB    *OBJ      SVILUPPOV7R2M0$ACGMOD33 010003280000000000                                                                             1170216110001DRC5500P            *FILE   PRTF      000000000036864QPGMR2    1       1170216110004Prtf stampa distinte di costo                                                             $ACGMOD33 QTEMP     V7R2M001110
SAVLIB    *OBJ      SVILUPPOV7R2M0$ACGMOD33 010003280000000000                                                                             1170216110001DRO1100V            *FILE   DSPF      000000000069632QPGMR2    1       1170216110004DSPF manutenzione cicli di lavorazione                                                    $ACGMOD33 QTEMP     V7R2M001110
SAVLIB    *OBJ      SVILUPPOV7R2M0$ACGMOD33 010003280000000000                                                                             1170216110001DRO2000P            *FILE   PRTF      000000000020480QPGMR2    1       1170216110004Prtf stampa errori cicli di lavorazione                                                   $ACGMOD33 QTEMP     V7R2M001110
SAVLIB    *OBJ      SVILUPPOV7R2M0$ACGMOD33 010003280000000000                                                                             1170216110001DRO3100V            *FILE   DSPF      000000000069632QPGMR2    1       1170216110004DSPF interrogazione cicli di lavoro                                                       $ACGMOD33 QTEMP     V7R2M001110
SAVLIB    *OBJ      SVILUPPOV7R2M0$ACGMOD33 010003280000000000                                                                             1170216110001DRO3200V            *FILE   DSPF      000000000045056QPGMR2    1       1170216110004DSPF interrogazione operazioni per centro                                                 $ACGMOD33 QTEMP     V7R2M001110
SAVLIB    *OBJ      SVILUPPOV7R2M0$ACGMOD33 010003280000000000                                                                             1170216110001DRO5100P            *FILE   PRTF      000000000020480QPGMR2    1       1170216110004Prtf stampa cicli di lavorazione                                                          $ACGMOD33 QTEMP     V7R2M001110
SAVLIB    *OBJ      SVILUPPOV7R2M0$ACGMOD33 010003280000000000                                                                             1170216110001DRO5300P            *FILE   PRTF      000000000020480QPGMR2    1       1170216110004Prtf stampa operazioni per centro di lavoro                                               $ACGMOD33 QTEMP     V7R2M001110
SAVLIB    *OBJ      SVILUPPOV7R2M0$ACGMOD33 010003280000000000                                                                             1170216110001DRS1000V            *FILE   DSPF      000000000049152QPGMR2    1       1170216110004DSPF manutenzione Distinta Base                                                           $ACGMOD33 QTEMP     V7R2M001110
SAVLIB    *OBJ      SVILUPPOV7R2M0$ACGMOD33 010003280000000000                                                                             1170216110001DRS1100V            *FILE   DSPF      000000000073728QPGMR2    1       1170216110004DSPF manutenzione Distinta Base (di massa)                                                $ACGMOD33 QTEMP     V7R2M001110
SAVLIB    *OBJ      SVILUPPOV7R2M0$ACGMOD33 010003280000000000                                                                             1170216110001DRS3100V            *FILE   DSPF      000000000069632QPGMR     1       1170216110004DSPF interrogazioni Distinte Base                                                         $ACGMOD33 QTEMP     V7R2M001110
SAVLIB    *OBJ      SVILUPPOV7R2M0$ACGMOD33 010003280000000000                                                                             1170216110001DRS5100P            *FILE   PRTF      000000000028672QPGMR2    1       1170216110004PRTF stampa Distinta Base                                                                 $ACGMOD33 QTEMP     V7R2M001110
SAVLIB    *OBJ      SVILUPPOV7R2M0$ACGMOD33 010003280000000000                                                                             1170216110001FRXBE01V            *FILE   DSPF      000000000028672QPGMR2    1       1170216110004CA330     Bonifico elettronico: guida                                                     $ACGMOD33 QTEMP     V7R2M001110
SAVLIB    *OBJ      SVILUPPOV7R2M0$ACGMOD33 010003280000000000                                                                             1170216110001FRXBE02P            *FILE   PRTF      000000000020480QPGMR2    1       1170216110004CA330D01  Bonifico elettronico: stampa lista                                              $ACGMOD33 QTEMP     V7R2M001110
SAVLIB    *OBJ      SVILUPPOV7R2M0$ACGMOD33 010003280000000000                                                                             1170216110001FRX4700P            *FILE   PRTF      000000000020480QPGMR2    1       1170216110004Pag. a fornitori (Ordine di bonifico)                                                     $ACGMOD33 QTEMP     V7R2M001110
SAVLIB    *OBJ      SVILUPPOV7R2M0$ACGMOD33 010003280000000000                                                                             1170216110001FRX4700R            *FILE   PRTF      000000000020480QPGMR2    1       1170216110004Pag. a fornitori (Ordine ritiro effetti)                                                  $ACGMOD33 QTEMP     V7R2M001110
SAVLIB    *OBJ      SVILUPPOV7R2M0$ACGMOD33 010003280000000000                                                                             1170216110001FRX4700U            *FILE   PRTF      000000000020480QPGMR2    1       1170216110004Pag. a fornitori (Lettera bonifico)                                                       $ACGMOD33 QTEMP     V7R2M001110
SAVLIB    *OBJ      SVILUPPOV7R2M0$ACGMOD33 010003280000000000                                                                             1170216110001GRA3000V            *FILE   DSPF      000000000020480QPGMR2    1       1170216110004CA330     Lista registrazioni contabili (Guida)                                           $ACGMOD33 QTEMP     V7R2M001110
SAVLIB    *OBJ      SVILUPPOV7R2M0$ACGMOD33 010003280000000000                                                                             1170216110001GRG1000V            *FILE   DSPF      000000000028672QPGMR2    1       1170216110004CA330 Stampa mastrini ripr.saldo - LVLCHK(*NO)                                            $ACGMOD33 QTEMP     V7R2M001110
SAVLIB    *OBJ      SVILUPPOV7R2M0$ACGMOD33 010003280000000000                                                                             1170216110001GRG1100P            *FILE   PRTF      000000000024576QPGMR2    1       1170216110004Stampa mastrini a RS e saldi GG                                                           $ACGMOD33 QTEMP     V7R2M001110
SAVLIB    *OBJ      SVILUPPOV7R2M0$ACGMOD33 010003280000000000                                                                             1170216110001GRG1600P            *FILE   PRTF      000000000020480QPGMR2    1       1170216110004CA330     Stampa mastrini a partite aperte                                                $ACGMOD33 QTEMP     V7R2M001110
SAVLIB    *OBJ      SVILUPPOV7R2M0$ACGMOD33 010003280000000000                                                                             1170216110001GRG3100P            *FILE   PRTF      000000000024576QPGMR2    1       1170216110004Stampa bilancio di verifica                                                               $ACGMOD33 QTEMP     V7R2M001110
SAVLIB    *OBJ      SVILUPPOV7R2M0$ACGMOD33 010003280000000000                                                                             1170216110001GRIPLFFP            *FILE   PRTF      000000000016384QPGMR2    1       1170216110004CA330     Prosp. annotaz. mensili per plafond IVA                                         $ACGMOD33 QTEMP     V7R2M001110
SAVLIB    *OBJ      SVILUPPOV7R2M0$ACGMOD33 010003280000000000                                                                             1170216110001GRI1100P            *FILE   PRTF      000000000024576QPGMR2    1       1170216110004CA330     Lista di controllo per registri                                                 $ACGMOD33 QTEMP     V7R2M001110
SAVLIB    *OBJ      SVILUPPOV7R2M0$ACGMOD33 010003280000000000                                                                             1170216110001GRI1800P            *FILE   PRTF      000000000024576QPGMR2    1       1170216110004CA330     Stampa registri IVA (definitiva)                                                $ACGMOD33 QTEMP     V7R2M001110
SAVLIB    *OBJ      SVILUPPOV7R2M0$ACGMOD33 010003280000000000                                                                             1170216110001GRI2500V            *FILE   DSPF      000000000020480QPGMR2    1       1170216110004CA330     Lista dati Iva                                                                  $ACGMOD33 QTEMP     V7R2M001110
SAVLIB    *OBJ      SVILUPPOV7R2M0$ACGMOD33 010003280000000000                                                                             1170216110001GRI2900P            *FILE   PRTF      000000000024576QPGMR2    1       1170216110004Lista dati Iva (x assoggettamento)                                                        $ACGMOD33 QTEMP     V7R2M001110
SAVLIB    *OBJ      SVILUPPOV7R2M0$ACGMOD33 010003280000000000                                                                             1170216110001GRX7100P            *FILE   PRTF      000000000036864QPGMR2    1       1170216110004CA330     Scadenzario cl/fo per codice (stampa)                                           $ACGMOD33 QTEMP     V7R2M001110
SAVLIB    *OBJ      SVILUPPOV7R2M0$ACGMOD33 010003280000000000                                                                             1170216110001GRX8000V            *FILE   DSPF      000000000028672QPGMR2    1       1170216110004Interrog. E/C cl/for a partite aperte                                                     $ACGMOD33 QTEMP     V7R2M001110
SAVLIB    *OBJ      SVILUPPOV7R2M0$ACGMOD33 010003280000000000                                                                             1170216110001LRA0100V            *FILE   DSPF      000000000040960QPGMR2    1       1170216110004Display movimenti di tipo 1                                                               $ACGMOD33 QTEMP     V7R2M001110
SAVLIB    *OBJ      SVILUPPOV7R2M0$ACGMOD33 010003280000000000                                                                             1170216110001LRA0600V            *FILE   DSPF      000000000036864QPGMR     1       1170216110004Display movimenti di tipo 6                                                               $ACGMOD33 QTEMP     V7R2M001110
SAVLIB    *OBJ      SVILUPPOV7R2M0$ACGMOD33 010003280000000000                                                                             1170216110001LRL0100V            *FILE   DSPF      000000000028672QPGMR2    1       1170216110004Gestione lotti di magazzino                                                               $ACGMOD33 QTEMP     V7R2M001110
SAVLIB    *OBJ      SVILUPPOV7R2M0$ACGMOD33 010003280000000000                                                                             1170216110001LRL0300V            *FILE   DSPF      000000000020480QPGMR2    1       1170216110004Modifica lotti di magazzino                                                               $ACGMOD33 QTEMP     V7R2M001110
SAVLIB    *OBJ      SVILUPPOV7R2M0$ACGMOD33 010003280000000000                                                                             1170216110001LRM1200V            *FILE   DSPF      000000000188416QPGMR2    1       1170216110004Display Gestione movimenti - Immissione                                                   $ACGMOD33 QTEMP     V7R2M001110
SAVLIB    *OBJ      SVILUPPOV7R2M0$ACGMOD33 010003280000000000                                                                             1170216110001LRSA100V            *FILE   DSPF      000000000024576QPGMR2    1       1170216110004Inventario fisico (lancio)                                                                $ACGMOD33 QTEMP     V7R2M001110
SAVLIB    *OBJ      SVILUPPOV7R2M0$ACGMOD33 010003280000000000                                                                             1170216110001LRSA200P            *FILE   PRTF      000000000020480QPGMR2    1       1170216110004Inventario fisico (Stampa)                                                                $ACGMOD33 QTEMP     V7R2M001110
SAVLIB    *OBJ      SVILUPPOV7R2M0$ACGMOD33 010003280000000000                                                                             1170216110001LRSA300V            *FILE   DSPF      000000000036864QPGMR2    1       1170216110004Rettifiche inventariali                                                                   $ACGMOD33 QTEMP     V7R2M001110
SAVLIB    *OBJ      SVILUPPOV7R2M0$ACGMOD33 010003280000000000                                                                             1170216110001LRSA300V_1          *FILE   DSPF      000000000036864QPGMR2    1       1170216110004Rettifiche inventariali                                                                   $ACGMOD33 QTEMP     V7R2M001110
SAVLIB    *OBJ      SVILUPPOV7R2M0$ACGMOD33 010003280000000000                                                                             1170216110001LRS1300P            *FILE   PRTF      000000000077824QPGMR2    1       1170216110004Printer immissione di massa movimenti di magazzino                                        $ACGMOD33 QTEMP     V7R2M001110
SAVLIB    *OBJ      SVILUPPOV7R2M0$ACGMOD33 010003280000000000                                                                             1170216110001LRS3300V            *FILE   DSPF      000000000049152QPGMR2    1       1170216110004Display int.mag. - Situazione esistenze                                                   $ACGMOD33 QTEMP     V7R2M001110
SAVLIB    *OBJ      SVILUPPOV7R2M0$ACGMOD33 010003280000000000                                                                             1170216110001LRS4000V            *FILE   DSPF      000000000036864QPGMR2    1       1170216110004Display interr. magazz. - Guida                                                           $ACGMOD33 QTEMP     V7R2M001110
SAVLIB    *OBJ      SVILUPPOV7R2M0$ACGMOD33 010003280000000000                                                                             1170216110001LRS9500P            *FILE   PRTF      000000000032768QPGMR2    1       1170216110004Stampa schede di magazzino                                                                $ACGMOD33 QTEMP     V7R2M001110
SAVLIB    *OBJ      SVILUPPOV7R2M0$ACGMOD33 010003280000000000                                                                             1170216110001LRV0100V            *FILE   DSPF      000000000110592QPGMR2    1       1170216110004Dislay per schede a video                                                                 $ACGMOD33 QTEMP     V7R2M001110
SAVLIB    *OBJ      SVILUPPOV7R2M0$ACGMOD33 010003280000000000                                                                             1170216110001LRX0300V            *FILE   DSPF      000000000024576QPGMR2    1       1170216110004Display per lista lotti per articolo/magazzino                                            $ACGMOD33 QTEMP     V7R2M001110
SAVLIB    *OBJ      SVILUPPOV7R2M0$ACGMOD33 010003280000000000                                                                             1170216110001M2RS030V            *FILE   DSPF      000000000069632QPGMR2    1       1170216110004SFL dinamico di IMMISSIONE movimenti produzione                                           $ACGMOD33 QTEMP     V7R2M001110
SAVLIB    *OBJ      SVILUPPOV7R2M0$ACGMOD33 010003280000000000                                                                             1170216110001M2RS030V_1          *FILE   DSPF      000000000069632QPGMR2    1       1170216110004SFL dinamico di IMMISSIONE movimenti produzione                                           $ACGMOD33 QTEMP     V7R2M001110
SAVLIB    *OBJ      SVILUPPOV7R2M0$ACGMOD33 010003280000000000                                                                             1170216110001M2RS040V            *FILE   DSPF      000000000061440QPGMR2    1       1170216110004Gestione - Versamenti da Produzione (causale 3)                                           $ACGMOD33 QTEMP     V7R2M001110
SAVLIB    *OBJ      SVILUPPOV7R2M0$ACGMOD33 010003280000000000                                                                             1170216110001M2RS050V            *FILE   DSPF      000000000040960QPGMR2    1       1170216110004Gestione - Prelievi per la Produzione (causale 4)                                         $ACGMOD33 QTEMP     V7R2M001110
SAVLIB    *OBJ      SVILUPPOV7R2M0$ACGMOD33 010003280000000000                                                                             1170216110001M7RC100P            *FILE   PRTF      000000000036864QPGMR2    1       1170216110004Stampa lettere di Certificazione annuale                                                  $ACGMOD33 QTEMP     V7R2M001110
SAVLIB    *OBJ      SVILUPPOV7R2M0$ACGMOD33 010003280000000000                                                                             1170216110001ORO6500P            *FILE   PRTF      000000000024576QPGMR2    1       1170216110004Conferma d'ordine QuickPress                                                              $ACGMOD33 QTEMP     V7R2M001110
SAVLIB    *OBJ      SVILUPPOV7R2M0$ACGMOD33 010003280000000000                                                                             1170216110001O2RE020V            *FILE   DSPF      000000000081920QPGMR2    1       1170216110004Evasione : Gestione righe                                                                 $ACGMOD33 QTEMP     V7R2M001110
SAVLIB    *OBJ      SVILUPPOV7R2M0$ACGMOD33 010003280000000000                                                                             1170216110001O2RE050V            *FILE   DSPF      000000000086016QPGMR2    1       1170216110004Evasione : Modifica evasione                                                              $ACGMOD33 QTEMP     V7R2M001110
SAVLIB    *OBJ      SVILUPPOV7R2M0$ACGMOD33 010003280000000000                                                                             1170216110001O2RE050V_P          *FILE   DSPF      000000000077824QPGMR2    1       1170216110004Evasione : Modifica evasione                                                              $ACGMOD33 QTEMP     V7R2M001110
SAVLIB    *OBJ      SVILUPPOV7R2M0$ACGMOD33 010003280000000000                                                                             1170216110001O2RE080V            *FILE   DSPF      000000000028672QPGMR2    1       1170216110004Evasione : Testata evasione   (F14)                                                       $ACGMOD33 QTEMP     V7R2M001110
SAVLIB    *OBJ      SVILUPPOV7R2M0$ACGMOD33 010003280000000000                                                                             1170216110001O2RE100P            *FILE   PRTF      000000000012288QPGMR2    1       1170216110004Stampa evasioni                                                                           $ACGMOD33 QTEMP     V7R2M001110
SAVLIB    *OBJ      SVILUPPOV7R2M0$ACGMOD33 010003280000000000                                                                             1170216110001O2RE100V            *FILE   DSPF      000000000045056QPGMR2    1       1170216110004Stampa evasioni: parametrico                                                              $ACGMOD33 QTEMP     V7R2M001110
SAVLIB    *OBJ      SVILUPPOV7R2M0$ACGMOD33 010003280000000000                                                                             1170216110001PRP4500P            *FILE   PRTF      000000000016384QPGMR2    1       1170216110004CA330     Scarico ricevute su supporto esterno                                            $ACGMOD33 QTEMP     V7R2M001110
SAVLIB    *OBJ      SVILUPPOV7R2M0$ACGMOD33 010003280000000000                                                                             1170216110001PRP4500V            *FILE   DSPF      000000000016384QPGMR2    1       1170216110004CA330     Scarico ricevute su supporto esterno                                            $ACGMOD33 QTEMP     V7R2M001110
SAVLIB    *OBJ      SVILUPPOV7R2M0$ACGMOD33 010003280000000000                                                                             1170216110001PRXGDSTP            *FILE   PRTF      000000000024576QPGMR2    1       1170216110004Stampa distinte (Stampa)                                                                  $ACGMOD33 QTEMP     V7R2M001110
SAVLIB    *OBJ      SVILUPPOV7R2M0$ACGMOD33 010003280000000000                                                                             1170216110001RRCA020P            *FILE   PRTF      000000000024576QPGMR2    1       1170216110004RA330     Stampa Certificazioni Annuali                                                   $ACGMOD33 QTEMP     V7R2M001110
SAVLIB    *OBJ      SVILUPPOV7R2M0$ACGMOD33 010003280000000000                                                                             1170216110001RRIM010P            *FILE   PRTF      000000000020480QPGMR2    1       1170216110004Imm.massa mov.cont. SRA V3:HOLD(*YES)                                                     $ACGMOD33 QTEMP     V7R2M001110
