SAVLIB    *OBJ      PERSEO  V5R3M0ASTALDI_PA010000070000000000                                                                             1180222120130ASTALDI_PA          *LIB    PROD      000000000081920QSECOFR   1       1180222120130**NO DELETE** In uso Astaldi per PA                                                       ASTALDI_PAQTEMP     V5R3M001110
SAVLIB    *OBJ      PERSEO  V5R3M0ASTALDI_PA010000070000000000                                                                             1180222120130LEGGI0CL            *PGM    CLP       000000000040960QSECOFR   1       1180222120131Lancia Copia e riempimento file txt                                                       ASTALDI_PAQTEMP     V5R3M001110
SAVLIB    *OBJ      PERSEO  V5R3M0ASTALDI_PA010000070000000000                                                                             1180222120130LEGGI01             *PGM    RPGLE     000000000126976QSECOFR   1       1180222120131Legge spool originale a genare nuovo file con skip                                        ASTALDI_PAQTEMP     V5R3M001110
SAVLIB    *OBJ      PERSEO  V5R3M0ASTALDI_PA010000070000000000                                                                             1180222120130LEGGI02             *PGM    RPGLE     000000000159744QSECOFR   1       1180222120131Riceve numero righe per pagina e carica file TXT                                          ASTALDI_PAQTEMP     V5R3M001110
SAVLIB    *OBJ      PERSEO  V5R3M0ASTALDI_PA010000070000000000                                                                             1180222120130QSOURCE             *FILE   PF        000000000172032QSECOFR   1       1180222120131                                                                                          ASTALDI_PAQTEMP     V5R3M001110
SAVLIB    *OBJ      PERSEO  V5R3M0ASTALDI_PA010000070000000000                                                                             1180222120130SPOOLTXF            *FILE   PF        000000000069632QSECOFR   1       1180222120131                                                                                          ASTALDI_PAQTEMP     V5R3M001110
SAVLIB    *OBJ      PERSEO  V5R3M0ASTALDI_PA010000070000000000                                                                             1180222120130SPOOL00F            *FILE   PF        000000000045056QSECOFR   1       1180222120131                                                                                          ASTALDI_PAQTEMP     V5R3M001110
