SAVLIB    *OBJ      PERSEO  V5R3M0ASTALDI_PA010000070000000000                                                                             1180222114331ASTALDI_PA          *LIB    PROD      000000000081920QSECOFR   1       1180222114331**NO DELETE** In uso Astaldi per PA                                                       ASTALDI_PAQTEMP     V5R3M001110
SAVLIB    *OBJ      PERSEO  V5R3M0ASTALDI_PA010000070000000000                                                                             1180222114331LEGGI0CL            *PGM    CLP       000000000040960QSECOFR   1       1180222114331Lancia Copia e riempimento file txt                                                       ASTALDI_PAQTEMP     V5R3M001110
SAVLIB    *OBJ      PERSEO  V5R3M0ASTALDI_PA010000070000000000                                                                             1180222114331LEGGI01             *PGM    RPGLE     000000000126976QSECOFR   1       1180222114331Legge spool originale a genare nuovo file con skip                                        ASTALDI_PAQTEMP     V5R3M001110
SAVLIB    *OBJ      PERSEO  V5R3M0ASTALDI_PA010000070000000000                                                                             1180222114331LEGGI02             *PGM    RPGLE     000000000159744QSECOFR   1       1180222114331Riceve numero righe per pagina e carica file TXT                                          ASTALDI_PAQTEMP     V5R3M001110
SAVLIB    *OBJ      PERSEO  V5R3M0ASTALDI_PA010000070000000000                                                                             1180222114331QSOURCE             *FILE   PF        000000000172032QSECOFR   1       1180222114331                                                                                          ASTALDI_PAQTEMP     V5R3M001110
SAVLIB    *OBJ      PERSEO  V5R3M0ASTALDI_PA010000070000000000                                                                             1180222114331SPOOLTXF            *FILE   PF        000000000069632QSECOFR   1       1180222114331                                                                                          ASTALDI_PAQTEMP     V5R3M001110
SAVLIB    *OBJ      PERSEO  V5R3M0ASTALDI_PA010000070000000000                                                                             1180222114331SPOOL00F            *FILE   PF        000000000045056QSECOFR   1       1180222114331                                                                                          ASTALDI_PAQTEMP     V5R3M001110
