SAVCHGOBJ *OBJ      SVILUPPOV7R3M0QGPL      010000030000000000                                                                             1171108001104QPGMR               *JOBQ             000000000016384QPGMR     1       1171108001104Coda del sottosistema del programmatore                                                   QGPL      QTEMP     V7R3M0011101171107001118
SAVCHGOBJ *OBJ      SVILUPPOV7R3M0QGPL      010000030000000000                                                                             1171108001104ACGDATDIS           *FILE   SAVF      000004326449152QPGMR     1       1171108001104                                                                                          QGPL      QTEMP     V7R3M0011101171107001118
SAVCHGOBJ *OBJ      SVILUPPOV7R3M0QGPL      010000030000000000                                                                             1171108001104TRAFILIT            *FILE   DDMF      000000000032768QPGMR     1       1171108001104Trasferimento files da part.ITALY                                                         QGPL      QTEMP     V7R3M0011101171107001118
